:020000040800F2
:1000000000200020392D0008832600088B260008D8
:1000100000000000000000000000000000000000E0
:10002000000000000000000000000000932600080F
:1000300000000000000000009D260008A92600081E
:10004000B92D000800000000B92D0008B92D0008E6
:10005000B92D0008B92D0008B92D0008C1260008E7
:1000600000000000B92D0008B92D0008B92D0008C6
:10007000B92D0008B92D000800000000E326000893
:100080000000000000000000000000000000000070
:10009000B92D00080000000000000000B92D000884
:1000A00000000000B92D0008000000000000000062
:1000B000B92D00080927000800000000000000001A
:1000C00010B5064C2378002B07D1054B002B02D02E
:1000D000044800E000BF0123237010BD1000002081
:1000E00000000000F43E0008044B10B5002B03D0C4
:1000F0000349044800E000BF10BDC04600000000F6
:1001000014000020F43E00080023C25C0133002AE2
:10011000FBD1581E70470000002243088B4274D365
:1001200003098B425FD3030A8B4244D3030B8B42F8
:1001300028D3030C8B420DD3FF22090212BA030C01
:100140008B4202D31212090265D0030B8B4219D3E2
:1001500000E0090AC30B8B4201D3CB03C01A524102
:10016000830B8B4201D38B03C01A5241430B8B424A
:1001700001D34B03C01A5241030B8B4201D30B0333
:10018000C01A5241C30A8B4201D3CB02C01A52415A
:10019000830A8B4201D38B02C01A5241430A8B421D
:1001A00001D34B02C01A5241030A8B4201D30B0206
:1001B000C01A5241CDD2C3098B4201D3CB01C01A20
:1001C000524183098B4201D38B01C01A524143092A
:1001D0008B4201D34B01C01A524103098B4201D318
:1001E0000B01C01A5241C3088B4201D3CB00C01A85
:1001F000524183088B4201D38B00C01A52414308FD
:100200008B4201D34B00C01A5241411A00D2014621
:10021000524110467047FFE701B5002000F0F0F8AA
:1002200002BDC0460029F7D076E7704703460B436E
:100230007FD4002243088B4274D303098B425FD3DF
:10024000030A8B4244D3030B8B4228D3030C8B420B
:100250000DD3FF22090212BA030C8B4202D31212F1
:10026000090265D0030B8B4219D300E0090AC30BC6
:100270008B4201D3CB03C01A5241830B8B4201D373
:100280008B03C01A5241430B8B4201D34B03C01A5C
:100290005241030B8B4201D30B03C01A5241C30AD4
:1002A0008B4201D3CB02C01A5241830A8B4201D345
:1002B0008B02C01A5241430A8B4201D34B02C01A2F
:1002C0005241030A8B4201D30B02C01A5241CDD2D4
:1002D000C3098B4201D3CB01C01A524183098B421F
:1002E00001D38B01C01A524143098B4201D34B0108
:1002F000C01A524103098B4201D30B01C01A52416B
:10030000C3088B4201D3CB00C01A524183088B42F1
:1003100001D38B00C01A524143088B4201D34B00DA
:10032000C01A5241411A00D201465241104670474C
:100330005DE0CA0F00D04942031000D34042534051
:1003400000229C4603098B422DD3030A8B4212D311
:10035000FC22890112BA030A8B420CD38901921143
:100360008B4208D3890192118B4204D389013AD080
:10037000921100E08909C3098B4201D3CB01C01A55
:10038000524183098B4201D38B01C01A5241430968
:100390008B4201D34B01C01A524103098B4201D356
:1003A0000B01C01A5241C3088B4201D3CB00C01AC3
:1003B000524183088B4201D38B00C01A5241D9D2DB
:1003C00043088B4201D34B00C01A5241411A00D25C
:1003D0000146634652415B10104601D34042002B58
:1003E00000D54942704763465B1000D3404201B5D7
:1003F000002000F005F802BD0029F8D016E770478C
:100400007047C046002B11D1002A0FD1002900D11E
:10041000002802D00021C943080007B4024802A105
:100420004018029003BDC046D9FFFFFF03B46846E1
:1004300001B5029800F006F8019B9E4602B00CBC84
:100440007047C046F0B557464E464546DE46E0B5D5
:1004500004000D009246994683B08B4230D82DD0CF
:100460004946504600F0BAF829000600200000F086
:10047000B5F8331A9846203B34D49B4653465A4627
:10048000934042461F00534693401E00AF423BD864
:10049000AF4200D179E05B46A41BBD41002B00DADE
:1004A00076E0002200230092019301235A469340F4
:1004B0000193012342469340009329E08242CFD921
:1004C00000220023009201930C9B002B01D01C60A2
:1004D0005D600098019903B0F0BCBB46B246A946E6
:1004E000A046F0BD42469B4620239B1A5246DA4066
:1004F000414613004A468A40170042461F4353466E
:1005000093401E00AF42C3D9002200230092019302
:100510004346002BD8D0FB0772081A4346467B0897
:100520000EE0AB4201D1A2420CD8A41A9D41012099
:1005300024196D410021013E24184D41002E06D0A2
:10054000AB42EED9013E24196D41002EF8D100983E
:1005500001995B4600196941002B24DB2B005A46A8
:100560004646D3402A001C00F2405B461500002B93
:100570002ADB26009E40330026004746BE4032005C
:10058000801A9941009001919EE7A342BCD882E76E
:100590004246202300219B1A002200910192012251
:1005A000DA40019285E7424620239B1A2A004646FC
:1005B0009A402300F340464613432A001C00F240B1
:1005C0005B461500002BD4DA202342462F009B1BEC
:1005D00097402600DE403B003343CDE710B50029AD
:1005E00003D100F007F8203002E0080000F002F824
:1005F00010BDC0461C2101231B04984201D3000CEE
:1006000010391B0A984201D3000A08391B09984285
:1006100001D30009043902A2105C40187047C0469B
:1006200004030202010101010000000000000000BB
:1006300080B582B000AF78607B68FF225A62C04606
:10064000BD4602B080BD80B582B000AF78607B68E7
:10065000CA225A627B6853225A62C046BD4602B023
:1006600080BD000080B586B000AFF860B9607A60E8
:100670003B607B681A04FF231B041A40BB681A43C3
:100680003B681B021B041B0C1A433B6AFF210B40F7
:1006900013437B61FB681B68044A1A407B691A4359
:1006A000FB681A60C046BD4606B080BD808080FFF2
:1006B00080B582B000AF78607B681B68024A134047
:1006C0001800BD4602B080BD7F7F3F0080B586B078
:1006D00000AFF860B9607A603B60BB685A033B6A60
:1006E0001904FF231B040B401A433B681B021B0425
:1006F0001B0C1A437B68FF210B4013437B61FB6893
:100700005B68054A1A407B691A43FB685A60C04619
:10071000BD4606B080BDC046C00000FF80B584B0B5
:1007200000AF78607B685B680E4A1340FB60FB6833
:100730005B0B1A06E023DB041A40FB681904FC2358
:100740009B030B401A43F968F8235B010B401A43E3
:10075000FB681B0CFF210B4013431800BD4604B07F
:1007600080BDC0463FFFFF0080B582B000AF78601B
:100770007B68DB6820221340202B01D1012300E09D
:1007800000231800BD4602B080BD80B582B000AF26
:1007900078607B68DB6880221340A12252421A43B2
:1007A0007B68DA60C046BD4602B080BD80B582B0CD
:1007B00000AF78607B681B6801221A437B681A606F
:1007C000C046BD4602B080BD80B582B000AF786043
:1007D0007B681B68012293431A007B681A60C0463D
:1007E000BD4602B080BD80B582B000AF7860396090
:1007F0007B681B693A6813403A68D31A5A425341DE
:10080000DBB21800BD4602B080BD80B582B000AF3B
:10081000786039607B683A689A61C046BD4602B02C
:1008200080BD80B582B000AF786039607B683A687F
:100830009A62C046BD4602B080BD80B584B000AFAC
:10084000786039603B681800FFF75EFC0300FB60CE
:10085000FB68082B02D002235B426EE00023FB60A2
:10086000FB685A1CFA601A003B689B181B78402BE7
:1008700002D001235B4260E0FB685A1CFA601A0058
:100880003B689B181B78303BDBB21A1C9200D318D4
:10089000DB18DAB27B681A71FB685A1CFA601A001E
:1008A0003B689B181B78303B19007B681A79CBB2E8
:1008B000D318DAB27B681A71FB685A1CFA601A0006
:1008C0003B689B181B78303BDBB21A1C9200D31894
:1008D000DB18DAB27B685A71FB685A1CFA601A009E
:1008E0003B689B181B78303B19007B685A79CBB268
:1008F000D318DAB27B685A71FB685A1CFA601A0086
:100900003B689B181B78303BDBB21A1C9200D31853
:10091000DB18DAB27B689A71FB685A1CFA601A001D
:100920003B689B181B78303B19007B689A79CBB2E7
:10093000D318DAB27B689A7100231800BD4604B060
:1009400080BD000080B500AF024B1B681800BD469B
:1009500080BDC0462C000020F0B587B002AF7860A3
:100960000C217B1801229A707B1801225A707B1887
:100970000022DA707B1801221A707A683F4B11004E
:100980001800FFF75AFF031E02D001235B4271E0FB
:100990003B4B1800FFF757FE394B180003F025F9C1
:1009A000364B1B790A211800FFF7B6FB0300DBB2B8
:1009B0001B01DCB2314B1B790A211800FFF732FC16
:1009C0000B00DBB22343DBB21D002C4B5B790A2109
:1009D0001800FFF7A1FB0300DBB21B01DCB2274BC1
:1009E0005B790A211800FFF71DFC0B00DBB22343E3
:1009F000DBB21E00214B9B790A211800FFF78CFB0C
:100A00000300DBB21B01DCB21C4B9B790A211800EE
:100A1000FFF708FC0B00DBB22343DBB2184800935E
:100A200033002A000021FFF71DFE0C203B181B7825
:100A300019003B189B781A003B185B781C003B1888
:100A4000DB780F4800932300FFF740FE0C4B1800A3
:100A500003F00BF90A4B1800FFF797FEC046084B4E
:100A60001800FFF781FE031EF9D0054B1800FFF7B1
:100A7000DFFD00231800BD4605B0F0BD38000020A2
:100A80000028004080B584B000AF0200FB1D1A7042
:100A9000FB1D1B78002B0DD0354B0C2200211800BC
:100AA00003F0F2F9334B05220021180003F0ECF9B2
:100AB000002359E00023FB6041E02F4BFA689200CD
:100AC000D258A023DB0511001800FFF78CFE0300AD
:100AD000BB60BB68002B0FD1254BFA689200D3583E
:100AE000002B09D1FFF72EFF0300244A9918204B51
:100AF000FA689200D15007E0BB68002B04D01C4B71
:100B0000FA6892000021D150194BFA689200D3582C
:100B1000002B11D0FFF716FF0100154BFA68920069
:100B2000D358994208D9134B5B78002B04D1114A52
:100B3000FB68D31801221A70FB680133FB60FB6865
:100B4000022BBAD90B4B1B785AB20A4B5B785BB2BB
:100B5000DB185BB213435AB2064B9B785BB29B0027
:100B60005BB213435BB2DBB21800BD4604B080BD7C
:100B7000500000203000002000000020DC050000B4
:100B800090B583B000AF344B1B68002B0CD1FFF73E
:100B9000D9FE0200304B1A60304B1A692E4B1B688D
:100BA000D2182D4B1A6053E02B4B1C68FFF7CAFE7E
:100BB0000300E31A7B60FB1C00221A707A68802312
:100BC0005B049A4203D3264B0122DA7040E0FC1CFE
:100BD0000020FFF757FF03002370FB1C1B78052B39
:100BE00006D01E4B00221A731B4B00221A602FE006
:100BF0007B68FA2291001800FFF78EFA03007B60F1
:100C00007B6818491800FFF70DFB0B007B60802301
:100C1000DB051800FFF7D8FD7B680A211800FFF7F5
:100C200001FB0B00DAB20D4BDA707B68002B01D1AF
:100C300001237B607B680A211800FFF76DFA03002F
:100C4000DAB2064B9A708023DB051800FFF7AEFD81
:100C5000BD4603B090BDC0465C0000209800002057
:100C6000300000208051010080B582B000AF524BAF
:100C70001800FFF71DFD03007B604F4B1800FFF7C6
:100C80004DFD03003B603B681B0CFF221A404B4BA1
:100C90001A607B681B0CDBB21B09DBB21A1C9200CA
:100CA000D318DB18DAB27B681B0CDBB20F210B40C8
:100CB000DBB2D318DBB21A00414B1A607B681B0A07
:100CC000DBB21B09DBB21A1C9200D318DB18DAB2B4
:100CD0007B681B0ADBB20F210B40DBB2D318DBB2FF
:100CE0001A00384B1A607B68DBB21B09DBB21A1C96
:100CF0009200D318DB18DAB27B68DBB20F210B400D
:100D0000DBB2D318DBB21A002F4B1A608023DB054D
:100D10001800FFF759FD2A4B1B680A211800FFF73E
:100D2000FBF90300DAB2294B1A70254B1B680A2124
:100D30001800FFF777FA0B00DAB2244B5A70214BF8
:100D40001B680A211800FFF7E7F90300DAB21F4B0E
:100D50009A701C4B1B680A211800FFF763FA0B00FE
:100D6000DAB21A4BDA70184B1B680A211800FFF729
:100D7000D3F90300DAB2154B1A71134B1B680A2121
:100D80001800FFF74FFA0B00DAB2104B5A710F4BF5
:100D90009B68042B06D90D4B5B7901229343DAB291
:100DA0000A4B5A718023DB051800FFF7FFFCC04691
:100DB000BD4602B080BDC046002800404000002073
:100DC00044000020480000204C0000209800002033
:100DD00080B500AF8023DB051800FFF7F5FC1E4B44
:100DE00001211800FFF71DFDFA235B00180003F036
:100DF0001BF8A023DB0502211800FFF706FDA02346
:100E0000DB0501211800FFF700FDFA235B00180045
:100E100003F00AF8A023DB0502211800FFF701FD0B
:100E2000A023DB0501211800FFF7FBFC0B4B002280
:100E30001A73FA235B00180002F0F6FF064B01213B
:100E40001800FFF7E2FC8023DB051800FFF7AEFC7B
:100E500000231800BD4680BD000800509800002007
:100E600080B58EB000AF574B1B78DBB2002B17D18B
:100E7000554B1B68022B11D1544B1B68002B0DD115
:100E8000534B1B68002B09D1524B1B68032B01D01D
:100E9000002392E04B4B01221A7001E001238CE009
:100EA0008023DB051800FFF78FFC4B4B0121180056
:100EB000FFF7B7FCFA235B00180002F0B5FFA02390
:100EC000DB0501211800FFF7A0FCFFF73BFD030045
:100ED000424A944663447B633B00180032231A0065
:100EE000002102F0D1FF3E4B00221A703D4B002240
:100EF0001A7025E03A4B1B78DBB2002B20D072B67B
:100F0000C046384B1B78DBB21A0037493B0018004B
:100F100002F0E6FF334B00221A7062B6C0463B0077
:100F20001B78402B0CD13B001800FFF715FD031E6A
:100F300002D001235B4240E0294B02221A7005E0F7
:100F4000FFF700FD02007B6B9A42D3D3A023DB05A1
:100F500001211800FFF765FC1A4B00221A70A0232C
:100F6000DB0502211800FFF75CFC96235B001800EC
:100F700002F05AFF8023DB051800FFF717FC164B21
:100F800001211800FFF741FC154B1B78DBB2012B48
:100F900002D101235B4210E0114B1B78DBB2002B26
:100FA00002D102235B4208E00D4B1B78DBB2022B1F
:100FB00001D1002301E00A235B421800BD460EB0B8
:100FC00080BDC0469400002044000020480000205E
:100FD0004C0000204000002000080050983A00001B
:100FE00093000020920000206000002080B582B0B5
:100FF00000AF0200FB1D1A70FB1D1B787F2B09D868
:10100000FB1D1B781A001F231A40044B012191403D
:101010000A001A60C046BD4602B080BD00E100E093
:1010200090B583B000AF02003960FB1D1A70FB1D44
:101030001B787F2B28D82F4AFB1D1B785BB29B089F
:10104000C0339B009B58FA1D1278110003220A40FE
:10105000D200FF2191400A00D2431A4011003B68A0
:101060009B01FF221A40FB1D1B781800032303403D
:10107000DB009A401F48FB1D1B785BB29B080A43AC
:10108000C0339B001A5031E01B4AFB1D1B7819002E
:101090000F230B40083B9B0806339B00D3180433F7
:1010A0001B68FA1D1278110003220A40D200FF21AA
:1010B00091400A00D2431A4011003B689B01FF2275
:1010C0001A40FB1D1B78180003230340DB009A40E5
:1010D0000948FB1D1B781C000F232340083B9B087D
:1010E0000A4306339B00C31804331A60C046BD464A
:1010F00003B090BD00E100E000ED00E080B584B0F9
:1011000000AF7860074BD96A064B7A680A43DA6207
:10111000044BDB6A7A681340FB60FB68C046BD463F
:1011200004B080BD0010024090B583B000AF78607D
:1011300039600F4A3B68FF210B4002339B009B58EC
:101140003A68120C0F2191400A00D2431A40110054
:101150003B681B0C7A689A4005483B68FF24234093
:101160000A4302339B001A50C046BD4603B090BDEF
:101170000000014080B584B000AFF860B9607A60CB
:10118000FB681968BB685B431A0013005B009B187F
:10119000DB430B401A00BB685B4379684B431A433F
:1011A000FB681A60C046BD4604B080BD80B584B0FF
:1011B00000AFF860B9607A60FB68D968BB685B43D0
:1011C0001A0013005B009B18DB430B401A00BB683E
:1011D0005B4379684B431A43FB68DA60C046BD46FF
:1011E00004B080BD80B582B000AF786039607B68A4
:1011F0003A685A61C046BD4602B080BD80B582B033
:1012000000AF786039607B683A689A62C046BD4634
:1012100002B080BDB0B586B000AF0200FB1D1A70F1
:10122000FC1DFB1D1B7806211800FEF7FBFF0B00C1
:10123000237000237B6101233B610123FB60FB1DC5
:101240001A780B257B1916498A5C1A707C197B1950
:101250001B780A211800FEF7E5FF0B0023703B699D
:101260009B013B617B191B783A699A4013003B61F3
:10127000FB1D1B78FA689A401300FB607A69FB68D3
:1012800013437B617A693B6913437B617B69054A40
:1012900019001000FFF7A6FFC046BD4606B0B0BD5E
:1012A0009800002000040050B0B586B000AF0200E6
:1012B000FB1D1A70FC1DFB1D1B7806211800FEF794
:1012C000B1FF0B00237000237B6101233B610123ED
:1012D000FB60FB1D1A780B23FB181C498A5C1A70F3
:1012E000FB1D1B78022B03D0FB1D1B78032B29D180
:1012F0000B257C197B191B780A211800FEF792FF39
:101300000B0023703B699B013B617B191B783A6999
:101310009A4013003B61FB1D1B78FA689A4013004A
:10132000FB60FB680C221340FB60FA683B691343C7
:101330007A6913437B617B69054A19001000FFF746
:1013400051FF00E0C046BD4606B0B0BD9800002089
:101350000004005090B589B000AF18243B19180064
:1013600008231A00002102F08FFD3B00180018230B
:101370001A00002102F088FD0420FFF7BFFE802044
:10138000FFF7BCFE0120FFF7B9FE0220FFF7B6FE13
:10139000FE4B01211800FFF731FF80239B01FB4A20
:1013A00019001000FFF72AFFA023DB050121180018
:1013B000FFF724FFA023DB0502211800FFF71EFF23
:1013C000F34B01211800FFF719FFF14B0221180020
:1013D000FFF714FFEE4B04211800FFF70FFF8023E7
:1013E000DB00EB4A19001000FFF708FF80231B0108
:1013F000E74A19001000FFF701FF80235B01E44A70
:1014000019001000FFF7FAFE80239B01E04A190043
:101410001000FFF7F3FE8023DB01DD4A1900100006
:10142000FFF7ECFE80231B02D94A19001000FFF7DA
:10143000E5FED74B08211800FFF7E0FED44B102142
:101440001800FFF7DBFED24B20211800FFF7D6FE75
:10145000CF4B40211800FFF7D1FECD4B8021180063
:10146000FFF7CCFE80235B00C94A19001000FFF78C
:10147000C5FE80239B00C64A19001000FFF7BEFE80
:101480003B0001221A603B0001225A603B0000220F
:101490009A603B000022DA603B0000221A613B00A8
:1014A000BA4A1900100001F051FE3B00802292015F
:1014B0001A603B0001225A603B0000229A603B0008
:1014C0000022DA603B0000221A613B00AF4A19009B
:1014D000100001F03BFE3B0001221A603B0003229A
:1014E0005A603B0000221A613B00AA4A1900100012
:1014F00001F02CFE3B0002221A603B0003225A60DE
:101500003B0000221A613B00A24A1900100001F0C2
:101510001DFE3B0001221A603B0001225A603B0085
:1015200000229A603B000022DA603B0000221A6130
:101530003A00A023DB051100180001F007FE3B0074
:1015400002221A603B0001225A603B0000229A608E
:101550003B000022DA603B0000221A613A00A0231F
:10156000DB051100180001F0F1FD3B0010221A60AC
:101570003B0003225A603B0000221A613A00A0237C
:10158000DB051100180001F0E1FD3B0020221A608C
:101590003B0000225A603B0001221A613A00A0235E
:1015A000DB051100180001F0D1FD3B0040221A605C
:1015B0003B0000225A603B0001221A613A00A0233E
:1015C000DB051100180001F0C1FD3B0080221A600C
:1015D0003B0000225A603B0001221A613A00A0231E
:1015E000DB051100180001F0B1FD3B0001221A607B
:1015F0003B0001225A603B0000229A603B0000221F
:10160000DA603B0000221A613B00614A19001000B9
:1016100001F09CFD3B0002221A603B0001225A604F
:101620003B0000229A603B000022DA603B0000226F
:101630001A613B00564A1900100001F087FD3B007B
:1016400004221A603B0001225A603B0000229A608B
:101650003B000022DA603B0000221A613B004C4A4A
:101660001900100001F072FD3B008022D2001A60C8
:101670003B0001225A603B0000229A603B0000229E
:10168000DA603B0000221A613B00414A1900100059
:1016900001F05CFD3B00802212011A603B00012238
:1016A0005A603B0000229A603B000022DA603B0057
:1016B00000221A613B00364A1900100001F046FD75
:1016C0003B00802252011A603B0001225A603B001D
:1016D00000229A603B000022DA603B0000221A617F
:1016E0003B002B4A1900100001F030FD3B00802226
:1016F00092011A603B0001225A603B0000229A606E
:101700003B000022DA603B0000221A613B00204AC5
:101710001900100001F01AFD3B008022D2011A606E
:101720003B0001225A603B0000229A603B000022ED
:10173000DA603B0000221A613B00154A19001000D4
:1017400001F004FD3B00802212021A603B000122DE
:101750005A603B0000229A603B000022DA603B00A6
:1017600000221A613B000A4A1900100001F0EEFC49
:101770003B00802252001A603B0003225A603B006B
:1017800000221A613A00A02306E0C046000800507B
:1017900000040050001C0050DB051100180001F08F
:1017A000D5FC3B00802292001A603B0003225A6065
:1017B0003B0000221A613A00A023DB05110018004B
:1017C00001F0C4FC3B008022D2001A603B000322DF
:1017D0005A603B0000221A613A00A023DB05110089
:1017E000180001F0B3FC3B00802212011A603B009C
:1017F00003225A603B0000221A613A00A023DB0555
:101800001100180001F0A2FC3B00802252011A6076
:101810003B0003225A603B0000221A613A00A023D9
:10182000DB051100180001F091FC3B0008221A6052
:101830003B0001225A603B0000229A603B000022DC
:10184000DA603B0000221A613B005B4A190010007D
:1018500001F07CFC3B0010221A603B0001225A6020
:101860003B0000229A603B000022DA603B0000222D
:101870001A613B00504A1900100001F067FC3B0060
:1018800020221A603B0001225A603B0000229A602D
:101890003B000022DA603B0000221A613B00464A0E
:1018A0001900100001F052FC3B0040221A603B007E
:1018B00001225A603B0000229A603B000022DA605D
:1018C0003B0000221A613B003B4A1900100001F066
:1018D0003DFC3B0080221A603B0001225A603B0025
:1018E00000229A603B000022DA603B0000221A616D
:1018F0003B00314A1900100001F028FC3B00802217
:1019000052001A603B0001225A603B0000229A609C
:101910003B000022DA603B0000221A613B00264AAD
:101920001900100001F012FC3B00802292001A60A6
:101930003B0001225A603B0000229A603B000022DB
:10194000DA603B0000221A613B001B4A19001000BC
:1019500001F0FCFB194B19000020FFF7E5FB802389
:101960001902A023DB0501221800FFF71FFC8023CA
:101970001902A023DB0500221800FFF7FBFB210062
:101980007B18802212021A607B1801221A717B18C0
:1019900000225A717B1801229A717B18180001F0FD
:1019A00095FA00210720FFF73BFB0720FFF71EFBFE
:1019B000C046BD4609B090BD0004005003000C00B5
:1019C00090B583B000AF02003960FB1D1A70FB1D9B
:1019D0001B787F2B28D82F4AFB1D1B785BB29B08F6
:1019E000C0339B009B58FA1D1278110003220A4055
:1019F000D200FF2191400A00D2431A4011003B68F7
:101A00009B01FF221A40FB1D1B7818000323034093
:101A1000DB009A401F48FB1D1B785BB29B080A4302
:101A2000C0339B001A5031E01B4AFB1D1B78190084
:101A30000F230B40083B9B0806339B00D31804334D
:101A40001B68FA1D1278110003220A40D200FF2100
:101A500091400A00D2431A4011003B689B01FF22CB
:101A60001A40FB1D1B78180003230340DB009A403B
:101A70000948FB1D1B781C000F232340083B9B08D3
:101A80000A4306339B00C31804331A60C046BD46A0
:101A900003B090BD00E100E000ED00E080B500AFD4
:101AA000044B1A68034B01210A431A60C046BD4625
:101AB00080BDC0460010024080B500AF054B1B68DA
:101AC00004221340042B01D1012300E0002318005D
:101AD000BD4680BD0010024080B582B000AF786086
:101AE000064B5B68064A134019007B681A02034BD9
:101AF0000A435A60C046BD4602B080BD0010024095
:101B0000FFE0FFFF80B500AF044B1A6D034B80214F
:101B100049000A431A65C046BD4680BD0010024018
:101B200080B582B000AF7860064B1B6D064A13404B
:101B30001900044B7A680A431A65C046BD4602B0D4
:101B400080BDC04600100240FFE7FFFF80B500AF38
:101B5000074B1A6D80239B001A4080239B009A42FA
:101B600001D1012300E000231800BD4680BDC0461E
:101B70000010024080B582B000AF7860064BDB6891
:101B8000032293431900044B7A680A43DA60C04683
:101B9000BD4602B080BDC0460010024080B500AF17
:101BA000034BDB680C2213401800BD4680BDC046C5
:101BB0000010024080B582B000AF7860064BDB6851
:101BC000F02293431900044B7A680A43DA60C04656
:101BD000BD4602B080BDC0460010024080B582B054
:101BE00000AF7860064BDB68064A13401900044BCF
:101BF0007A680A43DA60C046BD4602B080BDC0467E
:101C000000100240FFF8FFFF80B582B000AF78609F
:101C1000064BDB68064A13401900044B7A680A43F6
:101C2000DA60C046BD4602B080BDC046001002402A
:101C3000FFC7FFFF80B582B000AF7860064BDB6C5A
:101C4000064A13401900044B7A680A43DA64C04616
:101C5000BD4602B080BDC04600100240FFF3FFFF4A
:101C600080B582B000AF7860064B1B6D064A13400A
:101C70001900044B7A680A431A65C046BD4602B093
:101C800080BDC04600100240FFFFFCFF80B500AFE2
:101C9000034B1A6DC0239B0213401800BD4680BD44
:101CA0000010024080B500AF044B1A6D034B802139
:101CB000C9020A431A65C046BD4680BD00100240F5
:101CC00080B500AF044B1A6D034B802109030A4312
:101CD0001A65C046BD4680BD0010024080B500AF09
:101CE000044B1A6D034B04490A401A65C046BD46B1
:101CF00080BDC04600100240FFFFF7FF80B584B0F2
:101D000000AF7860074B996B064B7A680A439A6379
:101D1000044B9B6B7A681340FB60FB68C046BD4672
:101D200004B080BD0010024080B584B000AF786080
:101D3000074B596B064B7A680A435A63044B5B6B3B
:101D40007A681340FB60FB68C046BD4604B080BDA6
:101D50000010024080B582B000AF7860064B1B686F
:101D6000012293431900044B7A680A431A60C04663
:101D7000BD4602B080BDC0460020024080B500AF25
:101D8000034B1B68012213401800BD4680BDC046AE
:101D90000020024080B582B000AF7860034B7A68C3
:101DA0005A61C046BD4602B080BDC0460004014035
:101DB00080B500AF044B1A68034B02210A431A6036
:101DC000C046BD4680BDC04610E000E080B500AF13
:101DD000044B1A68034B02218A431A60C046BD4671
:101DE00080BDC04610E000E080B500AF044B1A692A
:101DF000034B04218A431A61C046BD4680BDC046DC
:101E000000ED00E080B500AF044B1A69034B0421DC
:101E10000A431A61C046BD4680BDC04600ED00E0E1
:101E200080B582B000AF7860064B1B68064A13404D
:101E30001900044B7A680A431A60C046BD4602B0D6
:101E400080BDC04600700040FFE7FFFF80B500AFD7
:101E5000044B1A68034B802149000A431A60C046AC
:101E6000BD4680BD0070004080B582B000AF786094
:101E7000064B1B68012293431900044B7A680A43FE
:101E80001A60C046BD4602B080BDC046007000402A
:101E900080B582B000AF7860064B1B680222934386
:101EA0001900044B7A680A431A60C046BD4602B066
:101EB00080BDC0460070004080B500AF054B5B6838
:101EC00010221340103B5A425341DBB21800BD466A
:101ED00080BDC0460070004080B582B000AF786021
:101EE0007B681B6801221A437B681A60C046BD46A6
:101EF00002B080BD80B582B000AF78607B681B689F
:101F0000012293431A007B681A60C046BD4602B0A6
:101F100080BD80B582B000AF786039607B681B6996
:101F20003A6813403A68D31A5A425341DBB2180058
:101F3000BD4602B080BD80B582B000AF7860396028
:101F40007B683A689A61C046BD4602B080BD80B5E4
:101F500082B000AF786039607B683A689A62C046A8
:101F6000BD4602B080BD80B584B000AF78603960F6
:101F70007B685B69FB60FB683A6813401A04FB6886
:101F8000DB4339680B401A437B689A61C046BD4603
:101F900004B080BD90B587B000AF8F4B00221A739C
:101FA0008D4B8E4A1A610120FFF7BEFE80235B0530
:101FB0001800FFF7A3FE01235B4203211800FFF77F
:101FC000FFFC00F01BF9FFF741FFFFF7F1FEFFF701
:101FD000C1F900F031FE00F045FA00F0DBFC80238F
:101FE0001B021800FFF7D6FE7D4B01211800FFF7FA
:101FF000AEFF7B4B01211800FFF7A9FF794B7A4A0E
:102000009A62FEF79FFC03007B61FEF79BFC0300D6
:102010003B61FEF797FC0300FB60714B0121180048
:10202000FFF789FF0023BB60BB1D00221A70FB1D58
:1020300000221A7000233B60FEF784FC02007B69DB
:1020400093420ED2644B1B7B012B02D0FEF70CFE99
:1020500002E0FEF795FDC046FEF774FC0300C833AE
:102060007B61FEF76FFC02003B6993420CD2802338
:102070009B015B4A19001000FFF775FFFEF762FC39
:102080000300F533FF333B61BB68002B0AD1FEF739
:1020900059FC0300554A934204D9554B01221A704A
:1020A0000123BB6080231A02A023DB051100180066
:1020B000FFF72FFF031E0FD1142001F0B5FE802380
:1020C0001A02A023DB0511001800FFF722FF031EF0
:1020D00005D100F063F902E0142001F0A5FEBC1D5B
:1020E0000020FEF7CFFC03002370424B5B78002BEF
:1020F00005D03F4B01221A703E4B00225A703D4BD7
:102100001B78002B17D03B4B9B78002B13D0324B06
:102110001B7B002B0FD1304B01221A732E4B2F4A01
:102120001A61BB1D1B78052B05D00120FEF7AAFC08
:10213000294B00221A732F4BDB78002B04D02D4B38
:102140000022DA70FEF744FEFEF78AFE03003B60D1
:102150003B68002B03DB204B9B68002B23D0FB1D2F
:102160001B78002B0FD1FB1D01221A70FEF7EAFB32
:102170000300214A94466344FB60174B9B685A1C3A
:10218000154B9A600FE0FB1D1B78012B0BD1FEF75E
:10219000D9FB0200FB68934205D2154B01221A704D
:1021A000FB1D00221A703B68002B07D100233B6007
:1021B0000123BB60084B00229A603DE73B68013376
:1021C00002D100233B6037E73B68023300D033E79E
:1021D00000233B6030E7C046980000200F27000036
:1021E0000008005000040050FFFF0000E0930400CE
:1021F000940000203000002020BF020080B500AF16
:102200000020FFF7A7FDC046FFF7B8FD031EFBD176
:1022100080231B011800FFF703FEC046FFF74CFEAA
:10222000031EFBD1FFF73AFCC046FFF745FC030055
:10223000012BFAD11020FFF74FFCFFF707FEFFF745
:1022400025FD020080235B029A4203D0FFF738FD90
:10225000FFF744FD0020FFF763FCFFF753FCC04687
:10226000FFF774FC0300012BFAD1FFF70FFD02000A
:1022700080235B029A4204D080235B021800FFF7A0
:10228000EFFCFFF70FFD0020FFF794FC0020FFF7A5
:10229000A5FC0020FFF7B8FC0120FFF76BFCC0464F
:1022A000FFF77CFC0300042BFAD1084B180001F067
:1022B000ABFD064B180001F0D9FD80231B0118006F
:1022C000FFF7B8FCC046BD4680BDC0460024F40000
:1022D00080B582B000AF0200FB1D1A70FB1D1B7899
:1022E000402B02D1144B00221A70134B1B78DBB227
:1022F000312B1DD8104B1B78DBB25A1CD1B20E4AC1
:10230000117019000D4BFA1D12785A54FB1D1B78E1
:102310000A2B03D0FB1D1B780D2B09D1064B1B7814
:10232000DBB21A00054B00219954054B01221A70AB
:10233000C046BD4602B080BD920000206000002073
:102340009300002080B500AF104B114A9A62114BE8
:102350001B7B012B05D0104B1B781800FEF75AFF92
:1023600005E00D4B1B781800FEF79EFFC0460A4B98
:102370001B78013306211800FEF73EF80B00DAB295
:10238000054B1A70C046BD4680BDC04600040050D3
:10239000FFFF000098000020AC00002080B500AFD7
:1023A000264B01211800FFF7D2FD254B254A9A62E2
:1023B00080239B01214A19001000FFF7C8FD8023EC
:1023C000DB051800FFF796FDFFF700FD80231B02D9
:1023D0001800FFF7DFFC0020FFF75AFD0120FFF790
:1023E00043FDFFF70FFDA023DB0502211800FFF7D7
:1023F000AEFDBFF34F8FC046BFF36F8FC04630BFF7
:10240000A023DB0502211800FFF795FDFFF7ECFC88
:1024100080231B021800FFF7BDFCFFF7EFFE8023AF
:10242000DB051800FFF758FDFFF7C2FC034B012145
:102430001800FFF780FDC046BD4680BD0008005073
:1024400000040050FFFF000080B500AF044B1A6D80
:10245000034B8021C9020A431A65C046BD4680BDB0
:102460000010024090B587B000AF0C243B19180053
:102470000C231A00002101F007FD3B1D1800082362
:102480001A00002101F000FD3B0000221A60FFF756
:10249000DBFF3B1900221A603B197F225A603B196F
:1024A000FF229A603B19154A1900100001F00EFA3C
:1024B0003B1D00221A713B1D00225A713B1D002258
:1024C0009A713B1D0D481A00012101F03AFA3B00B8
:1024D00001221A703B0001225A703B0001229A70BF
:1024E0003B000022DA703B0004481A00012101F091
:1024F000D3FAC046BD4607B090BDC0460028004094
:1025000080B582B000AF78607B68DB69022213403F
:10251000022B01D1012300E000231800BD4602B0C8
:1025200080BD80B582B000AF78607B68DB69042233
:102530001340042B01D1012300E000231800BD4605
:1025400002B080BD80B582B000AF78607B68DB6987
:1025500008221340082B01D1012300E000231800BA
:10256000BD4602B080BD80B582B000AF78607B68A8
:10257000DB6920221340202B01D1012300E000233E
:102580001800BD4602B080BD80B582B000AF786053
:102590007B6802221A62C046BD4602B080BD80B58B
:1025A00082B000AF78607B6804221A62C046BD46E4
:1025B00002B080BD80B582B000AF78607B68082231
:1025C0001A62C046BD4602B080BD80B582B000AF81
:1025D00078607B681B6820221340202B01D10123E7
:1025E00000E000231800BD4602B080BD80B582B077
:1025F00000AF78607B685B6ADBB21800BD4602B052
:1026000080BD000080B582B000AF7860064B5B698A
:102610007A6813407A68D31A5A425341DBB21800E1
:10262000BD4602B080BDC0460004014080B582B006
:1026300000AF7860034B7A685A61C046BD4602B06D
:1026400080BDC0460004014080B582B000AF786014
:102650007B68022252421A61C046BD4602B080BD6C
:1026600080B582B000AF78607B681B69012213409F
:10267000012B01D1012300E000231800BD4602B068
:1026800080BD80B500AFC046FDE780B500AFC04655
:10269000FDE780B500AFC046BD4680BD80B500AF48
:1026A000C046BD4680BD000080B500AF034B1B682F
:1026B0005A1C024B1A60C046BD4680BD2C0000204B
:1026C00080B500AF80231B021800FFF79BFF031E9D
:1026D00004D080231B021800FFF7A8FFC046BD46A8
:1026E00080BD80B500AF8023DB051800FFF7B8FF81
:1026F000031E06D08023DB051800FFF7A5FFFFF7B8
:1027000021FEC046BD4680BD90B583B000AF1D4BD5
:102710001800FFF728FF031E11D01A4B1800FFF70F
:1027200054FF031E0BD0FC1D164B1800FFF75EFF75
:1027300003002370FB1D1B781800FFF7C9FD114B28
:102740001800FFF7FFFE031E03D00E4B1800FFF723
:1027500031FF0C4B1800FFF7D3FE031E05D1094BC8
:102760001800FFF7DEFE031E07D0064B1800FFF728
:102770000BFF044B1800FFF712FFC046BD4603B025
:1027800090BDC0460048004080B500AFC046BD4681
:1027900080BD000080B582B000AF0200FB1D1A7042
:1027A000FB1D1B787F2B09D8FB1D1B781A001F23EC
:1027B0001A40044B012191400A001A60C046BD46F0
:1027C00002B080BD00E100E090B583B000AF020030
:1027D0003960FB1D1A70FB1D1B787F2B28D82F4AF0
:1027E000FB1D1B785BB29B08C0339B009B58FA1DF6
:1027F0001278110003220A40D200FF2191400A0002
:10280000D2431A4011003B689B01FF221A40FB1D76
:102810001B78180003230340DB009A401F48FB1D70
:102820001B785BB29B080A43C0339B001A5031E00F
:102830001B4AFB1D1B7819000F230B40083B9B080C
:1028400006339B00D31804331B68FA1D127811005D
:1028500003220A40D200FF2191400A00D2431A40CD
:1028600011003B689B01FF221A40FB1D1B781800DA
:1028700003230340DB009A400948FB1D1B781C0022
:102880000F232340083B9B080A4306339B00C318D1
:1028900004331A60C046BD4603B090BD00E100E0BD
:1028A00000ED00E080B584B000AF7860074B996B15
:1028B000064B7A680A439A63044B9B6B7A68134011
:1028C000FB60FB68C046BD4604B080BD00100240FE
:1028D00080B582B000AF78607B681B6801221A4324
:1028E0007B681A60C046BD4602B080BD80B582B02C
:1028F00000AF78607B681B68802293431A007B6876
:102900001A60C046BD4602B080BD000080B582B0EE
:1029100000AF786039607B689B68054A1A403B6865
:102920001A437B689A60C046BD4602B080BDC0466F
:10293000F8BFFFFF80B582B000AF786039607B6878
:102940005B68702293431A003B681A437B685A60A5
:10295000C046BD4602B080BD80B582B000AF786091
:102960007B689B68802293431A007B689A60C0460C
:10297000BD4602B080BD80B582B000AF78607B6894
:10298000DB6801221A437B68DA60C046BD4602B0AC
:1029900080BD000080B584B000AF3B00180010235C
:1029A0001A00002101F070FA0120FFF77BFF0021DF
:1029B0000F20FFF709FF0F20FFF7ECFE3B001D4A39
:1029C0001A803B0000225A603B0009229A603B00BB
:1029D0000022DA603A008023DB051100180001F0C4
:1029E000B1F98023DB051800FFF780FF8023DB05AA
:1029F00000211800FFF78AFF8023DB050021180063
:102A0000FFF798FF8023DB051800FFF7A5FF0021E3
:102A10000F20FFF7D9FE8023DB051800FFF7ABFF7F
:102A20008023DB051800FFF753FFC046BD4604B006
:102A300080BDC0463F06000080B582B000AF0200F6
:102A4000FB1D1A70FB1D1B787F2B09D8FB1D1B7803
:102A50001A001F231A40044B012191400A001A60FA
:102A6000C046BD4602B080BD00E100E090B583B035
:102A700000AF02003960FB1D1A70FB1D1B787F2B15
:102A800028D82F4AFB1D1B785BB29B08C0339B00E4
:102A90009B58FA1D1278110003220A40D200FF2130
:102AA00091400A00D2431A4011003B689B01FF226B
:102AB0001A40FB1D1B78180003230340DB009A40DB
:102AC0001F48FB1D1B785BB29B080A43C0339B0069
:102AD0001A5031E01B4AFB1D1B7819000F230B40D5
:102AE000083B9B0806339B00D31804331B68FA1D70
:102AF0001278110003220A40D200FF2191400A00FF
:102B0000D2431A4011003B689B01FF221A40FB1D73
:102B10001B78180003230340DB009A400948FB1D83
:102B20001B781C000F232340083B9B080A430633F5
:102B30009B00C31804331A60C046BD4603B090BD65
:102B400000E100E000ED00E080B582B000AF786009
:102B50007B681B6801221A437B681A60C046BD4629
:102B600002B080BD80B586B000AF7860EFF310830F
:102B7000BB60BB687B610123FB60FB6883F310884B
:102B8000C0467B681B6820221A437B681A607B69F9
:102B90003B613B6983F31088C046C046BD4606B022
:102BA00080BD80B586B000AF7860EFF31083BB6066
:102BB000BB687B610123FB60FB6883F31088C04620
:102BC0007B689B6801221A437B689A607B693B6142
:102BD0003B6983F31088C046C046BD4606B080BD41
:102BE00080B584B000AF7860074B996B064B7A686C
:102BF0000A439A63044B9B6B7A681340FB60FB6843
:102C0000C046BD4604B080BD0010024080B584B00F
:102C100000AF7860074BD96A064B7A680A43DA62DC
:102C2000044BDB6A7A681340FB60FB68C046BD4614
:102C300004B080BD0010024090B58DB000AF1824E4
:102C40003B19180018231A00002101F01DF93B0060
:102C5000180018231A00002101F016F98023DB0266
:102C60001800FFF7BDFF0120FFF7D0FF3B00042253
:102C70001A603B0002225A603B0000229A603B002F
:102C80000022DA603B0000221A613B0006225A61F2
:102C90003A00A023DB051100180000F057FA3B00B2
:102CA00008221A603B0002225A603B0002229A600E
:102CB0003B000022DA603B0000221A613B00062242
:102CC0005A613A00A023DB051100180000F03EFA1B
:102CD00000211D20FFF7CAFE1D20FFF7ADFE154B9A
:102CE0001800FFF73FFF134B1800FFF75AFF3B197F
:102CF000E12252021A6021007B1800225A607B18E0
:102D000000229A607B180022DA607B1804221A6184
:102D10007B1800225A617B18064A1900100000F047
:102D2000DFFA044B1800FFF70FFFC046BD460DB099
:102D300090BDC0460048004013488546FFF724FD7B
:102D400012480168090E124A914205D111481249F0
:102D5000016012481249016012481349134A0023C6
:102D600002E0D458C4500433C4188C42F9D3104A3A
:102D7000104C002301E013600432A242FBD301F0A7
:102D80008BF8FFF707F9FEE70020002004000000A1
:102D90001F0000003410024001000000000001404C
:102DA000000000000000002010000020403F00084C
:102DB00010000020B0000020FEE7000080B582B0C7
:102DC00000AF7860044B1968034B7A680A431A60B5
:102DD000C046BD4602B080BD0004014080B582B04F
:102DE00000AF7860054B1A687B68D943034B0A40F3
:102DF0001A60C046BD4602B080BDC0460004014016
:102E000080B582B000AF7860044B5968034B7A6894
:102E10000A435A60C046BD4602B080BD000401406E
:102E200080B582B000AF7860054B5A687B68D943A3
:102E3000034B0A405A60C046BD4602B080BDC04642
:102E40000004014080B582B000AF7860044B9968FF
:102E5000034B7A680A439A60C046BD4602B080BD03
:102E60000004014080B582B000AF7860054B9A68DD
:102E70007B68D943034B0A409A60C046BD4602B006
:102E800080BDC0460004014080B582B000AF7860CC
:102E9000044BD968034B7A680A43DA60C046BD46E2
:102EA00002B080BD0004014080B582B000AF786000
:102EB000054BDA687B68D943034B0A40DA60C046A9
:102EC000BD4602B080BDC0460004014080B584B05C
:102ED00000AF78600F23FB1800221A707B681B7903
:102EE000002B00D168E07B681B68002B00D16DE0EF
:102EF0007B685B79022B1BD025DC002B02D0012BD9
:102F00000BD020E07B681B681800FFF789FF7B6807
:102F10001B681800FFF752FF1AE07B681B68180057
:102F2000FFF75CFF7B681B681800FFF769FF0FE085
:102F30007B681B681800FFF741FF7B681B6818005F
:102F4000FFF75EFF04E00F23FB1801221A70C04652
:102F50007B689B79002B39D07B689B79032B1BD036
:102F600025DC012B02D0022B0BD020E07B681B68F4
:102F70001800FFF799FF7B681B681800FFF762FFD6
:102F800024E07B681B681800FFF76CFF7B681B68F8
:102F90001800FFF779FF19E07B681B681800FFF73E
:102FA00051FF7B681B681800FFF76EFF0EE00F23D0
:102FB000FB1801221A7009E07B681B681800FFF7F4
:102FC0000DFF7B681B681800FFF72AFF0F23FB1813
:102FD0001B781800BD4604B080BD80B584B000AF3A
:102FE000F860B9607A60FB681968BB685B431A00D7
:102FF00013005B009B18DB430B401A00BB685B436C
:1030000079684B431A43FB681A60C046BD4604B05A
:1030100080BD80B584B000AFF860B9607A60FB68AD
:103020005B68BA68D2431A40BB6879684B431A435D
:10303000FB685A60C046BD4604B080BD80B584B010
:1030400000AFF860B9607A60FB689968BB685B4361
:103050001A0013005B009B18DB430B401A00BB688F
:103060005B4379684B431A43FB689A60C046BD4690
:1030700004B080BD80B584B000AFF860B9607A60FC
:10308000FB68D968BB685B431A0013005B009B18A0
:10309000DB430B401A00BB685B4379684B431A4320
:1030A000FB68DA60C046BD4604B080BD80B584B020
:1030B00000AFF860B9607A60FB68196ABB685B436F
:1030C000BA685343BA685A4313001B019B1ADB4387
:1030D0000B401A00BB685B43B9684B43B9684B436C
:1030E00079684B431A43FB681A62C046BD4604B078
:1030F00080BD80B584B000AFF860B9607A60FB68CD
:10310000596ABB681B0ABA68120A5343BA68120AA2
:103110005343BA68120A5A4313001B019B1ADB433C
:103120000B401A00BB681B0AB968090A4B43B9680F
:10313000090A4B43B968090A4B4379684B431A4360
:10314000FB685A62C046BD4604B080BD80B584B0FD
:1031500000AF786039600023FB600023BB6048E06B
:103160003B681B680121FA6891400A001340BB606C
:10317000BB68002B3AD03B685B68012B03D03B68EF
:103180005B68022B0ED13B689A68B9687B681800AF
:10319000FFF754FF3B6819683B68DA687B681800E2
:1031A000FFF737FF3B681A69B9687B681800FFF7BB
:1031B00061FF3B685B68022B11D1BB68FF2B07D80E
:1031C0003B685A69B9687B681800FFF76FFF06E033
:1031D0003B685A69B9687B681800FFF78AFF3B684B
:1031E0005A68B9687B681800FFF7F7FEFB6801337F
:1031F000FB603B681A68FB68DA40131EB0D10023FD
:103200001800BD4604B080BD80B582B000AF7860C4
:103210007B681B6801221340012B01D1012300E0D0
:1032200000231800BD4602B080BD000080B582B00A
:1032300000AF786039607B685B68054A1A403B687C
:103240001A437B685A60C046BD4602B080BDC04686
:10325000FFCFFFFF80B582B000AF786039607B6838
:103260009B68054A1A403B681A437B689A60C046CF
:10327000BD4602B080BDC046FFFCFFFFB0B58AB0BE
:1032800000AF78623962FA61FB69002B24D03B6A97
:103290003B6100237B6139697A690B001B0E1000CA
:1032A00005021D430B001C02FB695B08BB60002389
:1032B000FB60B868F96800196941FB693B6000234D
:1032C0007B603A687B68FDF79DF802000B001300F5
:1032D0001B031A0B7B6ADA60C046BD460AB0B0BD5C
:1032E00090B585B000AF786039600F243B1901229A
:1032F0001A707B681800FFF787FF031E34D17B68C4
:103300001B681D4A1A403B6859683B68DB681943D3
:103310003B681B690B431A437B681A603B689A68D9
:103320007B6811001800FFF781FF3B685A697B68D2
:1033300011001800FFF78EFFC0231B01180000F0DA
:10334000B3F80300BB60BB68002B0DD03B681B6863
:10335000002B09D03B1900221A703B681A68B96823
:103360007B681800FFF78AFF0F23FB181B781800F3
:10337000BD4605B090BDC046F3E9FFEF80B500AF94
:10338000054B1B6804221340042B01D1012300E0EC
:1033900000231800BD4680BD0010024080B500AF7C
:1033A000074B1A6D80239B001A4080239B009A4292
:1033B00001D1012300E000231800BD4680BDC046B6
:1033C0000010024080B500AF034B5A68E0231B0297
:1033D00013401800BD4680BD0010024080B500AF0C
:1033E000034BDB680C2213401800BD4680BDC0466D
:1033F0000010024080B500AF034BDB68F0221340A1
:103400001800BD4680BDC0460010024080B500AF28
:10341000034BDA68E023DB0013401800BD4680BD93
:103420000010024080B582B000AF7860034BDB6CC7
:103430007A6813401800BD4602B080BD00100240FB
:1034400080B500AF034BDA6880235B02134018009D
:10345000BD4680BD0010024080B500AF034BDA6866
:10346000F0239B0313401800BD4680BD00100240AE
:1034700080B500AF034BDA68C0231B04134018006B
:10348000BD4680BD0010024080B500AF054B1B68F3
:1034900010221340102B01D1012300E0002318005B
:1034A000BD4680BD0010024080B584B000AF78609A
:1034B0000023FB607B681800FFF7B4FF0300C02205
:1034C000120193421FD0C0221201934223D88022BE
:1034D000D200934204D080221201934205D01AE018
:1034E00000F032F80300FB6025E0FFF747FF031E02
:1034F0001ED0FFF7C9FF031E02D0114BFB6017E07F
:10350000104BFB6014E0FFF749FF031E12D080232D
:103510001B02FB600EE000F017F80300180000F03B
:1035200057F80300180000F069F80300FB6002E0A0
:10353000C04600E0C046FB681800BD4604B080BD30
:1035400000093D000024F40080B582B000AFFFF711
:1035500045FF03000C2B20D024D8082B1AD021D8EB
:10356000002B02D0042B0BD01CE0FFF72BFF030035
:103570005B0B0133802212029A4013007B601CE037
:10358000FFF782FF031E02D00E4B7B6015E00E4B4F
:103590007B6012E00D4B7B600FE000F043F803000E
:1035A0007B600AE0FFF70EFF03005B0B0133802214
:1035B00012029A4013007B60C0467B681800BD462B
:1035C00002B080BD00093D000024F40000127A0022
:1035D00080B582B000AF7860FFF70CFF03001B09D5
:1035E0000F221340044AD35C1A007B68D3401800B2
:1035F000BD4602B080BDC0460C3F000880B582B019
:1036000000AF7860FFF702FF03001B0A044AD35C97
:103610001A007B68D3401800BD4602B080BDC0468A
:103620001C3F000890B583B000AFFFF709FF03000F
:103630003B603B68002B09D1FFF726FF031E02D039
:10364000104B7B6005E0104B7B6002E00F4B7B6012
:10365000C046FFF701FF03009B0C0D4AD35C1A0024
:103660007B6853431C00FFF703FF03009B0D0133EE
:1036700019002000FCF750FD03001800BD4603B000
:1036800090BDC04600093D000024F40000127A00FD
:10369000243F000880B582B000AF786039607B6855
:1036A0009B68402293431A003B681A437B689A60E8
:1036B000C046BD4602B080BD80B582B000AF786024
:1036C0007B689B68402213401800BD4602B080BD55
:1036D00080B582B000AF78607B6801225242DA6028
:1036E000C046BD4602B080BD80B582B000AF7860F4
:1036F0007B6881225242DA60C046BD4602B080BD7E
:1037000080B582B000AF78607B689B682022134050
:10371000202B01D1012300E000231800BD4602B098
:1037200080BD000080B582B000AF786039607B68F2
:103730001B69054A1A403B681B041A437B681A61DF
:10374000C046BD4602B080BDFFFF80FF80B582B09D
:1037500000AF786039607B681B69DB0BDA033B687C
:103760001A437B681A61C046BD4602B080BD80B571
:1037700082B000AF78607B68FF225A62C046BD46C7
:1037800002B080BD80B582B000AF78607B68CA228D
:103790005A627B6853225A62C046BD4602B080BD61
:1037A00080B586B000AFF860B9607A603B607B6836
:1037B0001A04FF231B041A40BB681A433B681B0210
:1037C0001B041B0C1A433B6AFF210B4013437B6114
:1037D000FB681B68044A1A407B691A43FB681A603D
:1037E000C046BD4606B080BD808080FF80B586B0F3
:1037F00000AFF860B9607A603B60BB685A033B6A0F
:103800001904FF231B040B401A433B681B021B04D3
:103810001B0C1A437B68FF210B4013437B61FB6841
:103820005B68054A1A407B691A43FB685A60C046C8
:10383000BD4606B080BDC046C00000FF80B582B066
:1038400000AF78607B68DB6840221340402B01D1D9
:10385000012300E000231800BD4602B080BD80B502
:1038600082B000AF78607B68DB6820221340202B99
:1038700001D1012300E000231800BD4602B080BD45
:1038800080B582B000AF78607B68DB68802213402F
:10389000A12252421A437B68DA60C046BD4602B09C
:1038A00080BD000080B500AF064B1A6880235B0224
:1038B0001340054A944663445A425341DBB2180010
:1038C000BD4680BD10E000E00000FFFF90B585B070
:1038D00000AF786039600F243B1901221A707B68B1
:1038E0001800FFF74FFF7B68180000F07EF9030017
:1038F000012B1BD03B681A687B6811001800FFF78A
:10390000C9FE3B689A687B6811001800FFF71EFF2C
:103910003B685A687B6811001800FFF703FF7B685B
:103920001800FFF7E1FE3B1900221A707B681800AF
:10393000FFF71DFF0F23FB181B781800BD4605B0CD
:1039400090BDF0B5C64600B588B002AFF860B9606A
:103950007A601723FB1801221A70BB68002B09D16B
:10396000FB681800FFF7A8FE031E0CD17B6800223D
:103970001A6008E0FB681800FFF79EFE031E02D1E4
:103980007B6800221A60FB681800FFF7FBFEFB68EB
:10399000180000F02AF90300012B70D0BB68002B3F
:1039A0000FD07B6819687B681B791A007B685B798C
:1039B0001C007B689B79F86800932300FFF7F0FEFA
:1039C00046E07B681D687B681B790A211800FCF7BC
:1039D000A3FB0300DBB21B01DCB27B681B790A216D
:1039E0001800FCF71FFC0B00DBB22343DBB21E0008
:1039F0007B685B790A211800FCF78EFB0300DBB2C1
:103A00001B01DCB27B685B790A211800FCF70AFC19
:103A10000B00DBB22343DBB298467B689B790A211B
:103A20001800FCF779FB0300DBB21B01DCB27B68FA
:103A30009B790A211800FCF7F5FB0B00DBB223434E
:103A4000DBB2F8680093434632002900FFF7A8FE76
:103A5000FB681800FFF748FEFB681800FFF750FEF0
:103A6000031E08D11723FC18FB68180000F00AF9A0
:103A70000300237003E01723FB1800221A70FB6871
:103A80001800FFF774FE1723FB181B781800BD46BB
:103A900006B080BCB846F0BDF0B5C64600B588B0EB
:103AA00002AFF860B9607A601723FB1801221A7020
:103AB000BB68002B0ED17B685B781A001023134083
:103AC00008D07B685B7810229343DBB20A33DAB20A
:103AD0007B685A70FB681800FFF754FEFB681800FB
:103AE00000F083F80300012B72D0BB68002B10D0CC
:103AF0007B681B7819007B689B781A007B685B7871
:103B00001C007B68DB78F86800932300FFF76EFEEB
:103B100047E07B681B781D007B689B780A211800B2
:103B2000FCF7FAFA0300DBB21B01DCB27B689B787E
:103B30000A211800FCF776FB0B00DBB22343DBB253
:103B40001E007B685B780A211800FCF7E5FA030089
:103B5000DBB21B01DCB27B685B780A211800FCF742
:103B600061FB0B00DBB22343DBB298467B68DB785A
:103B70000A211800FCF7D0FA0300DBB21B01DCB20B
:103B80007B68DB780A211800FCF74CFB0B00DBB2EA
:103B90002343DBB2F8680093434632002900FFF765
:103BA00025FEFB681800FFF79FFDFB681800FFF774
:103BB000A7FD031E08D11723FC18FB68180000F0AE
:103BC00061F80300237003E01723FB1800221A702A
:103BD000FB681800FFF7CBFD1723FB181B781800B4
:103BE000BD4606B080BCB846F0BD80B586B000AF1B
:103BF0007860FA239B00FB601723FB1800221A70E1
:103C000000233B617B681800FFF718FE031E25D1D7
:103C10007B681800FFF75CFD7B681800FFF70EFE5D
:103C200003003B6114E0FFF73DFE0300012B02D1CE
:103C3000FB68013BFB607B681800FFF7FFFD03009A
:103C40003B61FB68002B03D11723FB1801221A707C
:103C5000FB68002B02D03B69012BE4D11723FB1832
:103C60001B781800BD4606B080BD80B582B000AF9D
:103C700078607B681800FFF737FD00231800BD4609
:103C800002B080BD80B586B000AF7860FA239B009B
:103C9000FB601723FB1800221A7000233B617B682E
:103CA0001800FFF7EDFD7B681800FFF7D8FD030053
:103CB0003B6114E0FFF7F6FD0300012B02D1FB6826
:103CC000013BFB607B681800FFF7C9FD03003B6107
:103CD000FB68002B03D11723FB1801221A70FB6825
:103CE000002B02D03B69012BE4D11723FB181B7872
:103CF0001800BD4606B080BD80B582B000AF7860C8
:103D000039607B683A689A62C046BD4602B080BDA1
:103D100080B582B000AF786039607B683A68DA625B
:103D2000C046BD4602B080BD80B582B000AF7860AD
:103D30007B685B6901221A437B685A61C046BD46B5
:103D400002B080BD80B584B000AF786039607B6818
:103D50001B68FB607A688023DB059A4203D07B688E
:103D60001A4A934207D1FB68702293431A003B68BA
:103D70005B681343FB607A688023DB059A4203D0BB
:103D80007B68124A934206D1FB68114A1A403B688D
:103D9000DB681343FB607B68FA681A603B689A68CB
:103DA0007B6811001800FFF7B3FF3B681B881A00FF
:103DB0007B6811001800FFF79FFF7B681800FFF772
:103DC000B3FF00231800BD4604B080BD00080140C9
:103DD000FFFCFFFF80B582B000AF786039603968C2
:103DE0007868FCF799F903001A00064B013A5A600B
:103DF000044B00229A60034B05221A60C046BD4660
:103E000002B080BD10E000E080B582B000AF786005
:103E1000FA239A007B6811001800FFF7DBFFC04609
:103E2000BD4602B080BD000080B584B000AF7860B0
:103E30000D4B1B68FB60FB687B6801330CD07B6813
:103E400001337B6008E0084B1A6880235B02134053
:103E500002D07B68013B7B607B68002BF3D1C046BE
:103E6000C046BD4604B080BD10E000E080B582B021
:103E700000AF7860034B7A681A60C046BD4602B056
:103E800080BDC0460C00002003008218934200D180
:103E9000704719700133F9E770B500260C4C0D4DD1
:103EA000641BA410A64209D1002600F023F80A4C96
:103EB0000A4D641BA410A64205D170BDB300EB5897
:103EC00098470136EEE7B300EB5898470136F2E722
:103ED000383F0008383F00083C3F0008383F0008E2
:103EE000002310B59A4200D110BDCC5CC4540133FC
:103EF000F8E70000F8B5C046F8BC08BC9E4670471D
:0C3F0000F8B5C046F8BC08BC9E467047EF
:103F0C00000000000000000001020304060708097D
:103F1C000000000001020304030406080C10182022
:043F2C003000000061
:083F300014C5FF7F0100000031
:043F3800E900000894
:043F3C00C1000008B8
:103F40002000000040000000800000000000200071
:0400000508002D3989
:00000001FF
